{
  "_format": "hh-sol-artifact-1",
  "contractName": "FlashLoanReceiver",
  "sourceName": "contracts/FlashLoanReceiver.sol",
  "abi": [
    {
      "inputs": [
        {
          "internalType": "address",
          "name": "_poolProvider",
          "type": "address"
        }
      ],
      "stateMutability": "nonpayable",
      "type": "constructor"
    },
    {
      "inputs": [
        {
          "internalType": "address",
          "name": "owner",
          "type": "address"
        }
      ],
      "name": "OwnableInvalidOwner",
      "type": "error"
    },
    {
      "inputs": [
        {
          "internalType": "address",
          "name": "account",
          "type": "address"
        }
      ],
      "name": "OwnableUnauthorizedAccount",
      "type": "error"
    },
    {
      "anonymous": false,
      "inputs": [
        {
          "indexed": true,
          "internalType": "address",
          "name": "tokenEmprestado",
          "type": "address"
        },
        {
          "indexed": true,
          "internalType": "address",
          "name": "tokenAlvo",
          "type": "address"
        },
        {
          "indexed": false,
          "internalType": "uint256",
          "name": "lucro",
          "type": "uint256"
        },
        {
          "indexed": false,
          "internalType": "bool",
          "name": "successful",
          "type": "bool"
        }
      ],
      "name": "ArbitrageCompleted",
      "type": "event"
    },
    {
      "anonymous": false,
      "inputs": [
        {
          "indexed": true,
          "internalType": "address",
          "name": "previousOwner",
          "type": "address"
        },
        {
          "indexed": true,
          "internalType": "address",
          "name": "newOwner",
          "type": "address"
        }
      ],
      "name": "OwnershipTransferred",
      "type": "event"
    },
    {
      "inputs": [],
      "name": "ADDRESSES_PROVIDER",
      "outputs": [
        {
          "internalType": "contract IPoolAddressesProvider",
          "name": "",
          "type": "address"
        }
      ],
      "stateMutability": "view",
      "type": "function"
    },
    {
      "inputs": [],
      "name": "POOL",
      "outputs": [
        {
          "internalType": "contract IPool",
          "name": "",
          "type": "address"
        }
      ],
      "stateMutability": "view",
      "type": "function"
    },
    {
      "inputs": [
        {
          "internalType": "address[]",
          "name": "assets",
          "type": "address[]"
        },
        {
          "internalType": "uint256[]",
          "name": "amounts",
          "type": "uint256[]"
        },
        {
          "internalType": "uint256[]",
          "name": "premiums",
          "type": "uint256[]"
        },
        {
          "internalType": "address",
          "name": "initiator",
          "type": "address"
        },
        {
          "internalType": "bytes",
          "name": "params",
          "type": "bytes"
        }
      ],
      "name": "executeOperation",
      "outputs": [
        {
          "internalType": "bool",
          "name": "",
          "type": "bool"
        }
      ],
      "stateMutability": "nonpayable",
      "type": "function"
    },
    {
      "inputs": [
        {
          "internalType": "address",
          "name": "_asset",
          "type": "address"
        },
        {
          "internalType": "uint256",
          "name": "_amount",
          "type": "uint256"
        },
        {
          "internalType": "bytes",
          "name": "_params",
          "type": "bytes"
        }
      ],
      "name": "initiateFlashLoan",
      "outputs": [],
      "stateMutability": "nonpayable",
      "type": "function"
    },
    {
      "inputs": [],
      "name": "owner",
      "outputs": [
        {
          "internalType": "address",
          "name": "",
          "type": "address"
        }
      ],
      "stateMutability": "view",
      "type": "function"
    },
    {
      "inputs": [],
      "name": "renounceOwnership",
      "outputs": [],
      "stateMutability": "nonpayable",
      "type": "function"
    },
    {
      "inputs": [
        {
          "internalType": "address",
          "name": "newOwner",
          "type": "address"
        }
      ],
      "name": "transferOwnership",
      "outputs": [],
      "stateMutability": "nonpayable",
      "type": "function"
    },
    {
      "inputs": [
        {
          "internalType": "address",
          "name": "_tokenAddress",
          "type": "address"
        }
      ],
      "name": "withdraw",
      "outputs": [],
      "stateMutability": "nonpayable",
      "type": "function"
    },
    {
      "stateMutability": "payable",
      "type": "receive"
    }
  ],
  "bytecode": "0x60c060405234801561001057600080fd5b50604051620014313803806200143183398101604081905261003191610131565b338061005757604051631e4fbdf760e01b81526000600482015260240160405180910390fd5b610060816100e1565b506001600160a01b03811660808190526040805163026b1d5f60e01b8152905163026b1d5f916004808201926020929091908290030181865afa1580156100ab573d6000803e3d6000fd5b505050506040513d601f19601f820116820180604052508101906100cf9190610131565b6001600160a01b031660a05250610161565b600080546001600160a01b038381166001600160a01b0319831681178455604051919092169283917f8be0079c531659141344cd1fd0a4f28419497f9722a3daafe3b4186f6b6457e09190a35050565b60006020828403121561014357600080fd5b81516001600160a01b038116811461015a57600080fd5b9392505050565b60805160a0516112966200019b60003960008181610125015281816102fc0152818161075701526109d401526000609d01526112966000f3fe60806040526004361061007f5760003560e01c80638da5cb5b1161004e5780638da5cb5b14610147578063920f5c8414610165578063e95437aa14610195578063f2fde38b146101b557600080fd5b80630542975c1461008b57806351cff8d9146100dc578063715018a6146100fe5780637535d2461461011357600080fd5b3661008657005b600080fd5b34801561009757600080fd5b506100bf7f000000000000000000000000000000000000000000000000000000000000000081565b6040516001600160a01b0390911681526020015b60405180910390f35b3480156100e857600080fd5b506100fc6100f7366004610d86565b6101d5565b005b34801561010a57600080fd5b506100fc6102db565b34801561011f57600080fd5b506100bf7f000000000000000000000000000000000000000000000000000000000000000081565b34801561015357600080fd5b506000546001600160a01b03166100bf565b34801561017157600080fd5b50610185610180366004610e38565b6102ef565b60405190151581526020016100d3565b3480156101a157600080fd5b506100fc6101b0366004610f13565b6108df565b3480156101c157600080fd5b506100fc6101d0366004610d86565b610a53565b6101dd610a91565b806001600160a01b03811663a9059cbb6101ff6000546001600160a01b031690565b6040516370a0823160e01b81523060048201526001600160a01b038516906370a0823190602401602060405180830381865afa158015610243573d6000803e3d6000fd5b505050506040513d601f19601f820116820180604052508101906102679190610f6f565b6040516001600160e01b031960e085901b1681526001600160a01b03909216600483015260248201526044016020604051808303816000875af11580156102b2573d6000803e3d6000fd5b505050506040513d601f19601f820116820180604052508101906102d69190610f88565b505050565b6102e3610a91565b6102ed6000610abe565b565b6000336001600160a01b037f000000000000000000000000000000000000000000000000000000000000000016146103855760405162461bcd60e51b815260206004820152602e60248201527f466c6173684c6f616e52656365697665723a2043616c6c6572206973206e6f7460448201526d081d1a194810585d9948141bdbdb60921b60648201526084015b60405180910390fd5b600189146103e95760405162461bcd60e51b815260206004820152602b60248201527f466c6173684c6f616e52656365697665723a204170656e617320756d2061746960448201526a3b37903837b9103b32bd1760a91b606482015260840161037c565b600080806103f985870187610faa565b92509250925060008d8d600081811061041457610414610ff5565b90506020020160208101906104299190610d86565b905060008c8c600081811061044057610440610ff5565b60405163095ea7b360e01b81526001600160a01b0388811660048301526020909202939093013560248401819052935084169163095ea7b391506044016020604051808303816000875af115801561049c573d6000803e3d6000fd5b505050506040513d601f19601f820116820180604052508101906104c09190610f88565b506104cd84838784610b0e565b6040516370a0823160e01b81523060048201526000906001600160a01b038716906370a0823190602401602060405180830381865afa158015610514573d6000803e3d6000fd5b505050506040513d601f19601f820116820180604052508101906105389190610f6f565b9050600081116105a25760405162461bcd60e51b815260206004820152602f60248201527f466c6173684c6f616e52656365697665723a20436f6d70726120646f20746f6b60448201526e32b71030b63b37903330b63437ba9760891b606482015260840161037c565b60405163095ea7b360e01b81526001600160a01b0385811660048301526024820183905287169063095ea7b3906044016020604051808303816000875af11580156105f1573d6000803e3d6000fd5b505050506040513d601f19601f820116820180604052508101906106159190610f88565b5061062284878584610b0e565b60008c8c600081811061063757610637610ff5565b90506020020135836106499190611021565b6040516370a0823160e01b81523060048201529091506000906001600160a01b038616906370a0823190602401602060405180830381865afa158015610693573d6000803e3d6000fd5b505050506040513d601f19601f820116820180604052508101906106b79190610f6f565b9050818110156107405760405162461bcd60e51b815260206004820152604860248201527f466c6173684c6f616e52656365697665723a204c7563726f20696e737566696360448201527f69656e7465207061726120636f62726972206f20656d7072657374696d6f20656064820152671030903a30bc309760c11b608482015260a40161037c565b60405163a9059cbb60e01b81526001600160a01b037f0000000000000000000000000000000000000000000000000000000000000000811660048301526024820184905286169063a9059cbb906044016020604051808303816000875af11580156107af573d6000803e3d6000fd5b505050506040513d601f19601f820116820180604052508101906107d39190610f88565b5060006107e08383611034565b9050801561087c57856001600160a01b031663a9059cbb6108096000546001600160a01b031690565b6040516001600160e01b031960e084901b1681526001600160a01b039091166004820152602481018490526044016020604051808303816000875af1158015610856573d6000803e3d6000fd5b505050506040513d601f19601f8201168201806040525081019061087a9190610f88565b505b60408051828152600160208201526001600160a01b03808c1692908916917fcbdf526d22ee9c9709c38f86a8139901cf356f876f5e39e1f34ab85dbf83d3a8910160405180910390a3600199505050505050505050509998505050505050505050565b6108e7610a91565b60408051600180825281830190925260009160208083019080368337019050509050848160008151811061091d5761091d610ff5565b6001600160a01b039290921660209283029190910190910152604080516001808252818301909252600091816020016020820280368337019050509050848160008151811061096e5761096e610ff5565b60209081029190910101526040805160018082528183019092526000918160200160208202803683370190505090506000816000815181106109b2576109b2610ff5565b602090810291909101015260405163ab9c4b5d60e01b81526001600160a01b037f0000000000000000000000000000000000000000000000000000000000000000169063ab9c4b5d90610a1890309087908790879084908d908d906000906004016110d1565b600060405180830381600087803b158015610a3257600080fd5b505af1158015610a46573d6000803e3d6000fd5b5050505050505050505050565b610a5b610a91565b6001600160a01b038116610a8557604051631e4fbdf760e01b81526000600482015260240161037c565b610a8e81610abe565b50565b6000546001600160a01b031633146102ed5760405163118cdaa760e01b815233600482015260240161037c565b600080546001600160a01b038381166001600160a01b0319831681178455604051919092169283917f8be0079c531659141344cd1fd0a4f28419497f9722a3daafe3b4186f6b6457e09190a35050565b60408051610100810182526001600160a01b03858116825284811660208301908152610bb88385019081523060608501908152426080860190815260a08601888152600060c0880181815260e08901918252985163414bf38960e01b8152975187166004890152945186166024880152925162ffffff1660448701529051841660648601525160848501525160a4840152925160c48301529151821660e48201529085169063414bf38990610104016020604051808303816000875af1925050508015610bf8575060408051601f3d908101601f19168201909252610bf591810190610f6f565b60015b610cdc57836001600160a01b03166338ed1739826000610c188787610ce3565b30426040518663ffffffff1660e01b8152600401610c3a959493929190611166565b6000604051808303816000875af1925050508015610c7a57506040513d6000823e601f3d908101601f19168201604052610c7791908101906111a2565b60015b610cdc5760405162461bcd60e51b815260206004820152602d60248201527f466c6173684c6f616e52656365697665723a2046616c6861206e61206578656360448201526c3ab1b0b79032379039bbb0b81760991b606482015260840161037c565b5050505050565b604080516002808252606080830184529260009291906020830190803683370190505090508381600081518110610d1c57610d1c610ff5565b60200260200101906001600160a01b031690816001600160a01b0316815250508281600181518110610d5057610d50610ff5565b6001600160a01b039092166020928302919091019091015290505b92915050565b6001600160a01b0381168114610a8e57600080fd5b600060208284031215610d9857600080fd5b8135610da381610d71565b9392505050565b60008083601f840112610dbc57600080fd5b50813567ffffffffffffffff811115610dd457600080fd5b6020830191508360208260051b8501011115610def57600080fd5b9250929050565b60008083601f840112610e0857600080fd5b50813567ffffffffffffffff811115610e2057600080fd5b602083019150836020828501011115610def57600080fd5b600080600080600080600080600060a08a8c031215610e5657600080fd5b893567ffffffffffffffff80821115610e6e57600080fd5b610e7a8d838e01610daa565b909b50995060208c0135915080821115610e9357600080fd5b610e9f8d838e01610daa565b909950975060408c0135915080821115610eb857600080fd5b610ec48d838e01610daa565b909750955060608c01359150610ed982610d71565b90935060808b01359080821115610eef57600080fd5b50610efc8c828d01610df6565b915080935050809150509295985092959850929598565b60008060008060608587031215610f2957600080fd5b8435610f3481610d71565b935060208501359250604085013567ffffffffffffffff811115610f5757600080fd5b610f6387828801610df6565b95989497509550505050565b600060208284031215610f8157600080fd5b5051919050565b600060208284031215610f9a57600080fd5b81518015158114610da357600080fd5b600080600060608486031215610fbf57600080fd5b8335610fca81610d71565b92506020840135610fda81610d71565b91506040840135610fea81610d71565b809150509250925092565b634e487b7160e01b600052603260045260246000fd5b634e487b7160e01b600052601160045260246000fd5b80820180821115610d6b57610d6b61100b565b81810381811115610d6b57610d6b61100b565b634e487b7160e01b600052604160045260246000fd5b600081518084526020808501945080840160005b838110156110965781516001600160a01b031687529582019590820190600101611071565b509495945050505050565b600081518084526020808501945080840160005b83811015611096578151875295820195908201906001016110b5565b600060018060a01b03808b16835260e060208401526110f360e084018b61105d565b8381036040850152611105818b6110a1565b90508381036060850152611119818a6110a1565b9050818816608085015283810360a0850152858152858760208301376000602087830101526020601f19601f8801168201019250505061ffff831660c08301529998505050505050505050565b85815284602082015260a06040820152600061118560a083018661105d565b6001600160a01b0394909416606083015250608001529392505050565b600060208083850312156111b557600080fd5b825167ffffffffffffffff808211156111cd57600080fd5b818501915085601f8301126111e157600080fd5b8151818111156111f3576111f3611047565b8060051b604051601f19603f8301168101818110858211171561121857611218611047565b60405291825284820192508381018501918883111561123657600080fd5b938501935b828510156112545784518452938501939285019261123b565b9897505050505050505056fea2646970667358221220c77c4e0c4a046cd283f90c27ca0ed593ef9b84e3101b4e965dcb0679fff0d5ed64736f6c63430008140033",
  "linkReferences": {},
  "deployedLinkReferences": {}
}